:100000000C9429010C943D010C943D010C943D018C
:100010000C943D010C943D010C943D010C943D0168
:100020000C943D010C943D010C943D010C943D0158
:100030000C943D010C943D010C943D010C943D0148
:100040000C943D010C943D010C943D010C943D0138
:100050000C943D010C943D010C943D010C943F0126
:100060000C943D010C943D010C943D010C943D0118
:100070000C943D010C943D010C943D010C943D0108
:100080000C943D010C943D010C943D010C943D01F8
:100090000C943D010C943D010C943D010C943D01E8
:1000A0000C943D010C943D010C943D010C943D01D8
:1000B0000C943D010C943D010C943D010C943D01C8
:1000C0000C943D010C943D010C943D010C943D01B8
:1000D0000C943D010C943D010C943D010C943D01A8
:1000E0000C943D013E024102300234023802780293
:1000F000450249024F02530257025D026102650246
:1001000078026B026F0273020C946B020C9457021C
:100110000C946F020C9434020C9453020C945D0204
:100120000C9473020C9478020C9449020C943E02D5
:100130000C9441020C9465020C9430020C94610200
:100140000C9445020C944F020C94380200002100DC
:10015000240027002A002D00300033000101000098
:10016000040107010A0100002200250028002B00DD
:100170002E003100340002010000050108010B01CE
:1001800005050505070508080808020202020A0A13
:100190000808040404040101010101010101030331
:1001A000030303030303040707070C0C0C0C0C0CDC
:1001B0000C0C0202020206060606060606060B0BD9
:1001C0000B0B0B0B0B0B010210202008081020401A
:1001D000102040800201020108040201010204080B
:1001E0001020408080402010080402018004020199
:1001F00080402010080402010804020101020408E2
:1002000010204080010204081020408000000A0BEA
:1002100002090C0D0E080703040100000000000095
:1002200000000000000000000000000000000000CE
:10023000000000000000000012111000000000008B
:1002400000000000000000000000000000000000AE
:10025000000011241FBECFEFD1E2DEBFCDBF00E012
:100260000CBF22E0A0E0B2E001C01D92A930B207AD
:10027000E1F70E9489010C948F020C9400001F92F8
:100280000F920FB60F9211242F933F938F939F934A
:10029000AF93BF938091050290910602A09107024F
:1002A000B09108023091040223E0230F2D3720F48F
:1002B0000196A11DB11D05C026E8230F0296A11DC0
:1002C000B11D209304028093050290930602A0932F
:1002D0000702B09308028091000290910102A09160
:1002E0000202B09103020196A11DB11D809300028C
:1002F00090930102A0930202B0930302BF91AF91C9
:100300009F918F913F912F910F900FBE0F901F9053
:100310001895789484B5826084BD84B5816084BD6D
:1003200085B5826085BD85B5816085BD80916E0093
:10033000816080936E0010928100809181008260C4
:100340008093810080918100816080938100809101
:1003500080008160809380008091B10084608093F0
:10036000B1008091B00081608093B00080919100D5
:1003700082608093910080919100816080939100D0
:10038000809190008160809390008091A1008260B4
:100390008093A1008091A10081608093A100809151
:1003A000A00081608093A0008091210182608093F1
:1003B00021018091210181608093210180912001A0
:1003C00081608093200180917A00846080937A001C
:1003D00080917A00826080937A0080917A008160B7
:1003E00080937A0080917A00806880937A001092DE
:1003F000C10043ED51E0FA0164912DE831E0F901CB
:100400008491882399F090E0880F991FFC01E45BA8
:10041000FE4FA591B491FC01EA59FE4F859194914C
:100420009FB7F8948C91862B8C939FBFE9E1F2E003
:100430008491FA014491F9012491222309F466C0C0
:10044000882309F455C090E0FC013197E231F105B1
:1004500008F04EC08827EE58FF4F8F4F0C9487024C
:10046000809180008F7707C0809180008F7D03C0CE
:1004700080918000877F809380003AC084B58F7719
:1004800002C084B58F7D84BD33C08091B0008F776A
:1004900003C08091B0008F7D8093B00029C080910F
:1004A00090008F7707C0809190008F7D03C080916E
:1004B0009000877F809390001BC08091A0008F7771
:1004C00007C08091A0008F7D03C08091A000877F2E
:1004D0008093A0000DC0809120018F7707C080918C
:1004E00020018F7D03C080912001877F80932001B0
:1004F000E22FF0E0EE0FFF1FEA59FE4FA591B491F5
:100500009FB7F8948C91482B4C939FBFFFCFEE0F71
:10051000FF1F881F8BBF0790F691E02D1994F89468
:02052000FFCF0B
:00000001FF
